:020000040800F2
:10000000FCFF0120A9110000DD160000DD16000034
:10001000DD160000DD160000DD160000DD16000014
:10002000DD160000DD160000DD160000DD16000004
:10003000DD160000DD160000DD160000DD160000F4
:10004000DD160000DD160000DD160000DD160000E4
:10005000DD160000DD160000DD160000F9110000BD
:100060005112000031110000A9120000DD1600003D
:10007000DD160000DD160000DD160000DD160000B4
:10008000DD160000DD160000DD160000DD160000A4
:10009000DD160000DD160000DD160000DD16000094
:1000A000DD160000DD160000DD160000DD16000084
:1000B000DD160000DD160000DD160000DD16000074
:1000C000DD160000DD160000DD160000DD16000064
:1000D000DD160000DD160000DD160000DD16000054
:1000E000DD160000DD160000DD160000DD16000044
:1000F000DD160000DD160000DD160000DD16000034
:10010000DD160000DD160000DD160000DD16000023
:10011000DD160000DD160000DD160000DD16000013
:10012000DD160000DD160000DD160000DD16000003
:10013000DD160000DD160000DD160000DD160000F3
:10014000DD160000DD160000DD160000DD160000E3
:10015000DD160000DD160000DD160000DD160000D3
:10016000DD160000DD160000DD160000DD160000C3
:10017000DD160000DD160000DD160000DD160000B3
:10018000DD160000DD16000081B01E4900EA010105
:100190000846002212E001202CE002202AE0042080
:1001A00028E0082026E0102024E0202022E0402043
:1001B00020E080201EE040F200101BE0124988423F
:1001C000E9D012498842E8D011498842E7D0114964
:1001D0008842E6D010498842E5D010498842E4D0F0
:1001E0000F498842E3D00F498842E2D00E49884245
:1001F000E1D010460D49096841EA00020B490A6046
:1002000001B0704700FCFFFF000002400004024004
:1002100000080240000C024000100240001402409E
:1002200000180240001C024000200240303802400A
:1002300084B0CDF800E08DB21646864B00EA030389
:100240001F461846FFF7A0FFB5F1FF0F20D13C680D
:10025000814B04EA03031846804B9E4214D145F2B9
:10026000555340EA03033B603D1D2C686FF0FF03CC
:1002700004EA03032B6007F208052C684FF6FF73AE
:1002800044EA03032B60E1E0422E01D13860DDE057
:100290004FF6FF739D4213D1704B9E420BD14FF02E
:1002A00055333B603C1D0023236007F208044FF0E8
:1002B000FF332360CAE0422E02D100233B60C5E039
:1002C00006F001030BB103200AE006F008030BB1AE
:1002D000022005E006F004030BB1012000E000203D
:1002E00006F401230BB103210AE006F400630BB10D
:1002F000022105E006F480630BB1012100E000213A
:1003000006F020030BB1012200E0002206F4807306
:100310000BB1022305E006F080030BB1012300E0DE
:10032000002340F2000A01921FFA85F9B046064602
:1003300018460A460199BAF1100F80F087804FF0F5
:10034000010303FA0AF409EA0403A34240F07B80A4
:100350004FEA4A044FF00303A340DC433B682340C9
:100360003B604FEA4A0306FA03F43B6823433B60D1
:1003700008F00C033BB307F208054FEA4A044FF0BC
:100380000303A340DC432B6823402B6007F20805DE
:100390004FEA4A0302FA03F42B6823432B603D1D06
:1003A0001FFA8AF44FF00103A340DC432B6823407B
:1003B0002B603D1D1FFA8AF48BB203FA04F4A4B239
:1003C0002B6823432B6007F20C051FFA8AF35C00AD
:1003D000A4B24FF00303A340DC432B6823402B60FF
:1003E00007F20C054FEA4A0300FA03F42B68234393
:1003F0002B6008F0080333B308F470031B0D8DF86D
:100400000C30BAF1070F05D907F224030293AAF1C1
:10041000080503E007F2200302935546AC004FF0B5
:100420000F03A340DC43029B1B6803EA0404029B06
:100430001C609DF80C40AB009C40029B1B6843EA8B
:100440000404029B1C600AF1010A74E7DDF800E075
:1004500004B0704700FCFFFF0000FFFF140008001D
:1004600083B0CDF800E0044604F0FF031A091046FB
:1004700003F00F029446220A02F00F0293461AE09C
:100480002D4A029229E02D4A029226E02C4A02923D
:1004900023E02C4A029220E02B4A02921DE02B4AD4
:1004A00002921AE02A4A029217E02A4A029214E0C3
:1004B000294A029211E00028E2D00128E3D0022864
:1004C000E4D00328E5D00428E6D00528E7D00628A4
:1004D000E8D00728E9D00828EAD0012212B202FAAF
:1004E0000CF2ADF8042002980A46BDF80410FFF79C
:1004F0009FFE029A02F22001BCF1070F08D90A1DE3
:100500001046ACF10802114601910146019800E045
:10051000604683004FF00F029A40D3430A681A40A6
:100520000A6082000BFA02F30A681A430A60DDF8D7
:1005300000E003B0704700BF00000240000402402A
:1005400000080240000C024000100240001402406B
:1005500000180240001C02400020024081B0024806
:10056000006801B0704700BF5400002083B0CDF890
:1005700000E00024A10041180968B1F1FF3F14D048
:1005800000F23401A300C91809680A46C1180968B5
:100590000190ADF8084008461146FFF761FFBDF82D
:1005A00008400198641CA4B2E4E7DDF800E003B061
:1005B0007047FFFF83B0CDF800E08DF80410029083
:1005C0001046FFF7D3FF02989DF8041000F22003B5
:1005D0001A688C0024B24FF00103A3401A4300F2C2
:1005E00020031A6000F24404236843F400432360AC
:1005F00000F21802012901D9121DFFE74B08DBB2F6
:100600005B001BB28B420AD014686FF4D85304EA23
:1006100003031360136843F4C043136009E01468D4
:100620006FF01B0304EA03031360136843F06003D5
:100630001360036843F001030360DDF800E003B0DA
:100640007047FFFF81B0CDF800E00C4601466FF027
:10065000FF0201EA020210463BE001235BB2414A7D
:1006600013605AE001235BB23F4A136055E0012357
:100670005BB23E4A136050E001235BB23C4A136018
:100680004BE001235BB23B4A136046E001235BB2BF
:10069000394A136041E001235BB2384A13603CE001
:1006A00001235BB2364A136037E001235BB2354A5F
:1006B000136032E001235BB2334A13602DE0012363
:1006C0005BB2324A136028E001235BB2304A136008
:1006D00023E0304A9042C0D0B0F1804FC2D02E4AC1
:1006E0009042C4D02D4A9042C6D02D4A9042C8D0E4
:1006F0002C4A9042CAD02C4A9042CCD02B4A9042ED
:10070000CED02B4A9042D0D02A4A9042D2D02A4A08
:100710009042D4D0294A9042D6D0FFF71FFF0B68F1
:100720006FF0100203EA02020A6040F2E83242432C
:10073000B2FBF4F318464FF6FF72B3FBF2F2144625
:1007400001F2280392B21A60621CB0FBF2F210466A
:1007500001F22C0392B21A6080B2DDF800E001B021
:10076000704700BF800847420008474204084742DC
:10077000080847420C08474284084742C0084742DD
:10078000C4084742C8084742180847421C08474265
:1007900020084742000001400004004000080040DB
:1007A000000C0040000401400040014000440140B2
:1007B0000048014000180040001C0040002000409C
:1007C00081B0CDF800E001460348FFF73BFFDDF8BC
:1007D00000E001B0704700BF0044014081B0CDF897
:1007E00000E00A46C1B20348FFF7E4FEDDF800E08E
:1007F00001B070470044014081B0CDF800E00146EF
:100800000348FFF71FFFDDF800E001B0704700BFAD
:100810000048014081B0CDF800E00A46C1B203486B
:10082000FFF7C8FEDDF800E001B070470048014066
:1008300081B0CDF800E001460348FFF703FFDDF883
:1008400000E001B0704700BF0008004081B0CDF863
:1008500000E00A46C1B20348FFF7ACFEDDF800E055
:1008600001B070470008004081B0CDF800E00A46B2
:10087000C1B20348FFF79EFEDDF800E001B070470B
:100880000040014081B0CDF800E001460348FFF789
:10089000D9FEDDF800E001B0704700BF0040014024
:1008A00081B0D5B200F220042268012D08D19C004D
:1008B00024B2651C2DB24FF00104AC40224308E085
:1008C0009C0024B2651C2DB24FF00104AC40E443FF
:1008D000224000F22004226000F234059C002C1912
:1008E000216001B07047FFFF81B0042806D119498B
:1008F000096841F4803217490A6028E0052806D1CA
:100900001449096841F4003212490A601FE00628C0
:1009100006D11049096841F480220E490A6016E0A8
:100920000F2806D10C49096841F002020A490A6001
:100930000DE010280BD3A0F2100461098A000749CA
:100940008B1804F01F024FF001019140196001B0B3
:10095000704700BF24ED00E010E000E000E100E09F
:1009600081B0CDF800E0044A89B2FFF761FCDDF800
:1009700000E001B0704700BF1400080081B0012101
:1009800049B207480160002149B2064801600521CB
:10099000054801604FF6FF710448016001B07047DF
:1009A0000008474200000042280000402C000040A0
:1009B00081B0CDF800E03220FFF71EFF0A49088021
:1009C00040F62C2109B20948018040F62C24A0B23F
:1009D000074C2468A04707490020FFF71BFFDDF8FC
:1009E00000E001B0704700BF400000204800002038
:1009F00024000020E416000081B0CDF800E0322091
:100A0000FFF7DEFE0A49088040F62C2109B20948AA
:100A1000018040F62C24A0B2074C2468A047074967
:100A20000020FFF7DBFEDDF800E001B0704700BFFB
:100A3000420000204A00002028000020501700003B
:100A400081B0CDF800E04FF0420289B2FFF7F0FB31
:100A5000DDF800E001B0704781B0012149B20F48D4
:100A6000016040F23E67C0F200077F1EFDD100BF6B
:100A700000BF00BF00BF00BF002149B207480160AE
:100A800049F6FE67C0F224077F1EFDD100BF00BFFC
:100A900000BF00BF00BF01B0704700BFA882414245
:100AA00081B0CDF800E040F280010F48FFF758FF19
:100AB000012149B20D48016046F2A810FFF7E2FE9D
:100AC0000B490880A0F5AF610A4801808CB2A0B242
:100AD000094C2468A04709490020FFF7C5FEDDF84E
:100AE00000E001B0704700BF000002409C0240429D
:100AF0002E0000203600002004000020BC1700005B
:100B000081B0CDF800E040F202011848FFF798FFED
:100B100040F204011548FFF793FF012149B2144840
:100B200001601448006840F40871124801601248DE
:100B3000006840F00601104801601048006840F06D
:100B400006010E4801600E48006840F006010C489E
:100B5000016040F21700FFF7C7FE40F21800FFF7F0
:100B6000C3FEDDF800E001B0704700BF000802409E
:100B7000B808474208380140083C01400C3C01409D
:100B8000003C014081B0024810ED000A01B07047FE
:100B900050000020FFFFFFFF81B0012149B20F4844
:100BA000016040F23E67C0F200077F1EFDD100BF2A
:100BB00000BF00BF00BF00BF002149B2074801606D
:100BC00049F6FE67C0F224077F1EFDD100BF00BFBB
:100BD00000BF00BF00BF01B0704700BFAC82414200
:100BE00081B0CDF800E040F240010F48FFF7B8FEB9
:100BF000012149B20D4801604CF25030FFF718FE58
:100C00000B490880A0F52F710A4801808CB2A0B270
:100C1000094C2468A04709490020FFF717FEDDF8BA
:100C200000E001B0704700BF00000240980240425F
:100C30002C000020340000200000002028180000B4
:100C400081B0CDF800E0D3B2CAB281B20348FFF759
:100C500027FEDDF800E001B0704700BF004401400E
:100C600081B0CDF800E00948B0F90040A0B2084CCE
:100C70002468A0470748B0F90040A0B2064C246899
:100C8000A047DDF800E001B0704700BF360000204B
:100C900004000020340000200000002081B0CDF8C6
:100CA00000E0D3B2CAB281B20348FFF7F9FDDDF824
:100CB00000E001B0704700BF0048014081B0CDF8AE
:100CC00000E0D3B2CAB281B20348FFF7E9FDDDF814
:100CD00000E001B0704700BF0040014081B0CDF896
:100CE00000E0D3B2CAB281B20348FFF7D9FDDDF804
:100CF00000E001B0704700BF0008004081B0CDF8AF
:100D000000E00020054C2468A0470020044C246823
:100D1000A047DDF800E001B0704700BF00000020F0
:100D20000400002081B0024810ED000A01B07047B5
:100D30004C000020FFFFFFFF82B0CDF800E0FFF77E
:100D40008BFEFFF729FFFFF71DFF8DED010AFFF76F
:100D5000E9FFDDED010A70EEC00AB2EE0E0AF4EE14
:100D6000C00AF1EE10FA16DAFFF7DCFF8DED010A8A
:100D7000FFF708FFDDED010A70EEC00AB2EE0E0AC1
:100D8000F4EEC00AF1EE10FA00DD04E0FFF764FEB5
:100D9000FFF702FFD7E743F6FE67C0F2AB1700BFCD
:100DA00000BF7F1EFDD100BF00BF00BFFFF7A6FF41
:100DB000DDF800E002B0704781B000EE900AF8EE76
:100DC000600A034900EE101A80EE800A01B07047F5
:100DD0000000114481B00D48006840F001010B484B
:100DE000016000210A480160084801680948014083
:100DF00006480160084909480160044801686FF429
:100E0000802001400148016001B070470038024075
:100E100008380240FFFFF6FE10300024043802407C
:100E200081B0CDF800E0002109B215480180002111
:100E300009B214480180002149B213480160012120
:100E400049B212480160412109B211480180412193
:100E500009B210480180012109B20F480180FFF753
:100E6000FFFE0748B0F9000028B10648B0F90000BD
:100E7000002800D000E0F4E7DDF800E001B07047A2
:100E80001000002012000020980240429C024042C4
:100E900014000020160000201800002081B0CDF8BA
:100EA00000E041F66E10034C2468A047DDF800E036
:100EB00001B070472800002081B0CDF800E040F676
:100EC000FE07C0F23D0700BF00BF7F1EFDD100BF7F
:100ED00000BF00BF012149B20E4801600E48016009
:100EE000002109B20D480180FFF7B6FDFFF7B8FEFB
:100EF000FFF748FEF1EE000AB4EEE00AF1EE10FA58
:100F000002DDFFF7A9FDF3E7FFF7F8FEDDF800E0EB
:100F100001B07047980240429C02404218000020F5
:100F200081B0CDF800E000220021FFF7B7FEDDF828
:100F300000E001B07047FFFF81B0CDF800E0002273
:100F40000021FFF77DFEDDF800E001B07047FFFFF4
:100F500081B0CDF800E000220121FFF7AFFEDDF8FF
:100F600000E001B07047FFFF81B0CDF800E0002243
:100F70000021FFF793FEDDF800E001B07047FFFFAE
:100F800081B0CDF800E000220121FFF7A7FEDDF8D7
:100F900000E001B07047FFFF81B0CDF800E0002213
:100FA0000121FFF78BFEDDF800E001B07047FFFF85
:100FB00081B0CDF800E000220021FFF741FEDDF80E
:100FC00000E001B07047FFFF81B0CDF800E0FFF70F
:100FD000D5FCFFF711FDFFF7EBFC40F600012048C0
:100FE000FFF7BEFC40F200411D48FFF7B9FC40F29C
:100FF00008011C48FFF724FD40F210011948FFF7D3
:101000001FFD012149B2184801601848006840F0EE
:101010001801164801601648006840F0180114488D
:1010200001601448006840F018011248016012483D
:10103000006840F40051104801601048006840F01A
:1010400002010E48016040F21900FFF74DFC40F22A
:101050001A00FFF749FCDDF800E001B0704700BF5F
:10106000000C024000080240B8084742083C01401A
:101070000C3C0140003C0140083801400C38014064
:1010800081B04FF000094FF0000CBDEB0A0F04DCFB
:10109000BDEB0B0F01DBD446EA464BF8049BBBEBE0
:1010A0000A0FFAD1BCEB0A0F05DDE246D9F800B011
:1010B0000BF1040BF1E701B07047FFFF81B01CF8A2
:1010C000019B0BF8019BBBEB0A0FF8D101B07047F5
:1010D00081B0CDF800E000220121FFF7FFFDDDF82F
:1010E00000E001B07047FFFF81B0CDF800E041F2B1
:1010F000E360064C2468A04740F6B740044C2468DF
:10110000A047DDF800E001B0704700BF24000020D8
:101110002800002081B0CDF800E0FFF761FDFFF767
:10112000BFFCFFF7EDFCDDF800E001B07047FFFF0A
:1011300081B0CDF800E0012149B2134801600021DF
:1011400049B2124801601249086818B1012149B238
:10115000104801600E49086888B9002149B20D485D
:1011600001600D4800680D4A106000210A480160C6
:1011700010460068FFF720FE094800ED000ADDF880
:1011800000E001B0704700BF8C822742BC0242429F
:101190000C02414200000042240000406000002098
:1011A0004C000020FFFFFFFF81B000F0D1F800F0FD
:1011B0007FFA00F0E3FB00F0B9F800F091FBFFF7D5
:1011C00003FFFFF791FF40F6FE57C0F2277700BFFD
:1011D00000BF7F1EFDD100BF00BF00BFFFF79AFF19
:1011E000FFF7AAFDFFF71CFEFFF758FEFFF764FEAE
:1011F000FFF716FEFEE7FEE730B481B0CDF800E061
:10120000012149B20D4801600D48B0F9000000B954
:101210000FE00C49B1F90000401E00B20880002820
:1012200007DA0020084C2468A047012109B20748CA
:101230000180DDF800E001B030BC704784822742B5
:1012400018000020160000200400002010000020DC
:1012500030B481B0CDF800E0012149B20D48016001
:101260000D48B0F9000000B90FE00C49B1F90000D9
:10127000401E00B20880002807DA0020084C2468CD
:10128000A047012109B207480180DDF800E001B064
:1012900030BC7047888227421800002014000020CC
:1012A000000000201200002081B0CDF800E00121F4
:1012B00049B217480160002149B216480160164939
:1012C000086818B1012149B2144801601249086840
:1012D000D0B9002149B21148016011480068114A93
:1012E000106000210E48016010460068B0F57A6F6A
:1012F00003D3002149B2074801600A480068FFF79C
:101300005BFD094800ED000ADDF800E001B0704720
:1013100090822742BC024242100241420000004239
:10132000240000405C0000205000002081B00449EF
:101330000448016004490548016001B0704700BFDE
:10134000C0D4010054000020030000005800002019
:1013500082B0CDF800E0924A924B934C9348944966
:10136000032840F03C809348814206D992480068A7
:1013700040F005019048016030E09048814206D974
:101380008D48006840F004018B48016026E08C48DD
:10139000814206D98848006840F003018648016010
:1013A0001CE04EF66020814206D98348006840F078
:1013B00002018148016011E047F23050814206D9B4
:1013C0007D48006840F001017B48016006E07A48F2
:1013D00001686FF007000140774801600CE10228C6
:1013E00040F046807748814206D97348006840F053
:1013F0000601714801603AE07048814206D96E48A2
:10140000006840F005016C48016030E06E488142A0
:1014100006D96948006840F004016748016026E089
:101420006A48814206D96448006840F00301624876
:1014300001601CE04BF68030814206D95E480068AE
:1014400040F002015C48016011E045F6C050814265
:1014500006D95948006840F001015748016006E08C
:10146000554801686FF00700014053480160C3E030
:10147000012840F051805148814206D94E48006809
:1014800040F007014C48016045E05148814206D9CF
:101490004948006840F00601474801603BE0484881
:1014A000814206D94448006840F005014248016085
:1014B00031E04648814206D93F48006840F00401C7
:1014C0003D48016027E04DF2F020814206D93A48BC
:1014D000006840F00301384801601CE048F6A04075
:1014E000814206D93448006840F002013248016068
:1014F00011E044F25060814206D92F48006840F064
:1015000001012D48016006E02B4801686FF00700DB
:101510000140294801606FE0002840F06D802D48AF
:10152000814206D92448006840F007012248016042
:1015300062E02548814206D91F48006840F0060154
:101540001D48016058E02448814206D91A480068C5
:1015500040F00501184801604EE0B1F57A4F06D918
:101560001548006840F004011348016044E04BF660
:101570008030814206D91048006840F003010E48CF
:10158000016039E0B1F5FA4F06D90B48006840F028
:101590000201094801602FE0B1F57A5F25D91DE00D
:1015A00081000001081E00050294000003000000F5
:1015B000C0D40100F0490200003C0240C0D4010048
:1015C000905F0100803202000077010040190100A5
:1015D000E0A5010080B50100803801002D480068B9
:1015E00040F001012B48016006E02A4801686FF0D5
:1015F0000700014027480160012149B226480160E7
:1016000026480160FFF7E6FB254803602548046093
:10161000254802EA00012548016002F0010040B1BE
:1016200021462248006800F00200002800D1F8E7B7
:1016300000E0214602F4803048B11C48006800F404
:10164000003000B9F9E701920A46019902E00191E0
:101650001146019A01F0807070B11448006840F0A2
:1016600080711248016011461048006800F0007057
:1016700000B9F9E70A46FFE70A48006800F00C01E4
:10168000900000F00C00814200D0F5E7DDF800E0AA
:1016900002B07047003C024020804742248047420D
:1016A0000438024008380240FFFF0F0000380240B3
:1016B00081B04EF68850CEF20000016841F470010E
:1016C000016000BF00BF00BF00BFF1EE100A40F490
:1016D0004000E1EE100A01B07047FFFF81B0FEE765
:1016E00001B0704719030000FFFFFFFF000000007A
:1016F00000000000000000000000000000000000EA
:1017000000000000000000000000000000000000D9
:10171000000000000000000018100000FFFFFFFFA5
:1017200000000000000000000000000000000000B9
:1017300000000000000000000000000000000000A9
:101740000000000000000000000000000000000099
:1017500018030000FFFFFFFF000000000000000072
:101760000000000000000000000000000000000079
:101770000000000000000000000000000000000069
:101780000000000018100000FFFFFFFF0000000035
:101790000000000000000000000000000000000049
:1017A0000000000000000000000000000000000039
:1017B00000000000000000000000000045030000E1
:1017C000FFFFFFFF0000000000000000000000001D
:1017D0000000000000000000000000000000000009
:1017E00000000000000000000000000000000000F9
:1017F00018100000FFFFFFFF0000000000000000C5
:1018000000000000000000000000000000000000D8
:1018100000000000000000000000000000000000C8
:10182000000000000000000016020000FFFFFFFFA4
:1018300000000000000000000000000000000000A8
:101840000000000000000000000000000000000098
:101850000000000000000000000000001810000060
:10186000FFFFFFFF0000000000000000000000007C
:101870000000000000000000000000000000000068
:101880000000000000000000000000000000000058
:10189000000000002C0A710BB70CFD0D430F8810DF
:1018A000CE11131358149E15E31629186E19B41A85
:1018B000F91BFFFFD1100000510F0000390F00008D
:1018C000210F000000000000C800C8000000FFFF5A
:1018D000810F0000990F0000B10F0000690F000098
:1018E00000B5DFF824B0DFF824A0DFF824C0FFF74C
:1018F000E5FBDFF820B0DFF820A0DFF820C0FFF71D
:10190000DDFB00BD704700BF000000201A00002072
:10191000B41800001C0000202C000020D01800008B
:10192000FFFFFFFFFFFFFFFFFFFFFFFFFFFFFFFFC7
:10193000FFFFFFFFFFFFFFFFFFFFFFFFFFFFFFFFB7
:10194000FFFFFFFFFFFFFFFFFFFFFFFFFFFFFFFFA7
:10195000FFFFFFFFFFFFFFFFFFFFFFFFFFFFFFFF97
:10196000FFFFFFFFFFFFFFFFFFFFFFFFFFFFFFFF87
:10197000FFFFFFFFFFFFFFFFFFFFFFFF00B5DFF8E7
:1019800010B0DFF810A0FFF77BFB00BD704700BF71
:101990000000002064000020FFFFFFFFFFFFFFFFAB
:00000001FF
